:020000040000FA
:100000000C9462000C948A000C948A000C948A0070
:100010000C948A000C948A000C948A000C948A0038
:100020000C948A000C948A000C948A000C948A0028
:100030000C948A000C948A000C948A000C948A0018
:100040000C94CA050C948A000C948A000C948A00C3
:100050000C948A000C948A000C948A000C948A00F8
:100060000C9414060C948A00000000002300260063
:10007000290000000008000201000003040700003E
:1000800000000000000000000000250028002B00F8
:1000900000000000240027002A00040404040404D3
:1000A0000404020202020202030303030303010227
:1000B00004081020408001020408102001020408F6
:1000C0001020330711241FBECFEFD8E0DEBFCDBF15
:1000D00012E0A0E0B1E0E2EDF1E102C005900D9286
:1000E000AA32B107D9F723E0AAE2B2E001C01D921B
:1000F000A331B207E1F710E0C2E6D0E004C02197D7
:10010000FE010E94E108C136D107C9F70E945307DA
:100110000C94E7080C940000CF93DF9390E0FC016F
:10012000E255FF4F249186569F4FFC01849188230E
:10013000C1F090E0880F991FFC01E057FF4FC59177
:10014000D491FC01EA57FF4FA591B4919FB7F89461
:100150003881822F809583238883EC91E22BEC9366
:100160009FBFDF91CF910895833081F028F48130D3
:1001700099F08230A9F008958730A9F08830C9F04D
:100180008430B1F4809180008F7D03C08091800025
:100190008F7780938000089584B58F7784BD08950C
:1001A00084B58F7DFBCF8091B0008F778093B000B6
:1001B00008958091B0008F7DF9CF1F93CF93DF9387
:1001C000282F30E0F901EE58FF4F8491F901E255F4
:1001D000FF4FD491F901E656FF4FC491CC23A9F00B
:1001E000162F81110E94B400EC2FF0E0EE0FFF1FDC
:1001F000EA57FF4FA591B4918FB7F894EC91111184
:1002000008C0D095DE23DC938FBFDF91CF911F9183
:100210000895DE2BF8CF3FB7F8948091F7029091C4
:10022000F802A091F902B091FA0226B5A89B05C088
:100230002F3F19F00196A11DB11D3FBFBA2FA92F65
:10024000982F8827BC01CD01620F711D811D911D62
:1002500042E0660F771F881F991F4A95D1F70895CE
:100260008F929F92AF92BF92CF92DF92EF92FF92C6
:100270004B015C010E940B016B017C010E940B0190
:100280006C197D098E099F09683E734081059105AF
:10029000A8F321E0821A9108A108B10888EEC80EDF
:1002A00083E0D81EE11CF11C81149104A104B10467
:1002B00029F7FF90EF90DF90CF90BF90AF909F9085
:1002C0008F90089508950895AF92BF92CF92DF92D4
:1002D000EF92FF920F931F93CF93DF936C017B01FB
:1002E0008B01040F151FEB015E01AE18BF08C0178C
:1002F000D10759F06991D601ED91FC910190F081FF
:10030000E02DC6010995892B79F7C501DF91CF91C1
:100310001F910F91FF90EF90DF90CF90BF90AF9023
:10032000089520916B02260F3327331F21323105A8
:10033000ECF42091B402FC0190E080E0243069F0FC
:1003400082E00895A0916B022191AC01455B5D4F65
:10035000A40FB52FB11D2C930196861798F38091A9
:100360006B02680F60936B0280E0089581E008954E
:100370001092B40281E08093B30210928E0261E089
:1003800082E10E94DD0061E083E10E94DD00E9EB93
:10039000F0E080818E7F808380818D7F808388E400
:1003A0008093B80085E48093BC000895CF93DF93D9
:1003B00091E090934A028823B9F0C091B800D0919F
:1003C000BA008091BC008A7B8093BC0060E082E12F
:1003D0000E94DD0060E083E10E94DD000E94B80120
:1003E000D093BA00C093B800DF91CF9108950895DB
:1003F000E091E3028091E202E81730F4F0E0E65D7C
:10040000FD4F808190E008958FEF9FEF08959091C8
:10041000E3028091E2022FEF3FEF981748F4E92FB3
:10042000F0E0E65DFD4F208130E09F5F9093E302B6
:10043000C90108958091E2029091E302891B990B12
:100440000895CF92DF92EF92FF920F931F93CF9375
:10045000DF937C01CB018A012091BA02222389F02B
:10046000EB016B01C40ED51ECC15DD0569F0699159
:10047000D701ED91FC910190F081E02DC701099524
:10048000F3CF642F0E949101C801DF91CF911F919A
:100490000F91FF90EF90DF90CF900895CF93DF936F
:1004A0001F92CDB7DEB769832091BA022223F9F0FB
:1004B0002091E002203258F021E030E0FC0133834B
:1004C000228390E080E00F90DF91CF91089580919A
:1004D000E102E82FF0E0E554FD4F998190838F5FB2
:1004E0008093E1028093E00281E090E0ECCF61E054
:1004F000CE0101960E949101F7CFCF92DF92EF9249
:10050000FF920F931F93CF93DF93D62F672FFC019A
:10051000C48181E08093BA02C093DB021092E102B1
:100520001092E0028BEF92E00E944E026D2F8BEF53
:1005300092E00E944E02D091E002D13208F092C0C7
:100540000E940B016B017C018091B402811165C096
:1005500082E08093B40281E08093B3028FEF8093B6
:10056000B2021092B102D093B002ABEBB2E0E0E97C
:10057000F2E080E0D81385C010928F0280918F0244
:10058000CC0FC82BC0938F0280918E02813009F06E
:100590007CC010928E020E940B016B017C01809145
:1005A0008F028093BB008091B6029091B702A09118
:1005B000B802B091B902892B8A2B8B2B99F00E943B
:1005C0000B010091B6021091B7022091B802309150
:1005D000B9026C197D098E099F09061717072807AC
:1005E0003907E0F18091BC0083FDD9CF85EC809381
:1005F000BC000E940B016B017C018091B40282302F
:1006000009F445C08091B2028F3F61F18091B2023E
:10061000803241F18091B20225C08091B602909162
:10062000B702A091B802B091B902892B8A2B8B2B0B
:1006300009F48ACF0E940B010091B6021091B70213
:100640002091B8023091B9026C197D098E099F0979
:10065000061717072807390708F076CF8091B502EB
:100660000E94D6011092E1021092E0021092BA02AA
:10067000DF91CF911F910F91FF90EF90DF90CF907E
:1006800008959D9191938F5F75CF85EEB0CF809146
:10069000B6029091B702A091B802B091B902892B2D
:1006A0008A2B8B2B09F4A9CF0E940B010091B60273
:1006B0001091B7022091B8023091B9026C197D09EE
:1006C0008E099F09061717072807390708F095CFE5
:1006D000C5CFCF93DF93CDB7DEB728970FB6F89489
:1006E000DEBF0FBECDBF98E0E3E0F1E0DE01119682
:1006F00001900D929A95E1F790910F03981708F4E5
:100700008FEF90E0880F991F21E030E02C0F3D1F04
:10071000820F931FFC016081606870E087E093E0C6
:1007200028960FB6F894DEBF0FBECDBFDF91CF91F4
:100730000C947D0261E070E087E093E00E947D020E
:100740008BE39FE10197F1F780911003882319F063
:1007500080E00C946903089570E070640E947D024B
:1007600081E090E00895089590E080E00895209160
:10077000EF023091F0022130310599F048F022303B
:100780003105B1F023303105D1F082E691E00895D2
:1007900094E0899FF0011124E15FFE4F80819181F7
:1007A000089594E0899FF0011124E95CFE4FF6CF93
:1007B00094E0899FF0011124E55DFE4FEFCF94E0B6
:1007C000899FF0011124E55EFE4FE8CF0F931F9340
:1007D000CF93DF93EB01282F30E0F901EE58FF4F64
:1007E0008491F901E255FF4F0491F901E656FF4F5C
:1007F000149130E020E0112399F081110E94B4009F
:10080000E12FF0E0EE0FFF1FE859FF4FA591B491E3
:10081000EC910E2391E080E009F490E0292F382F2D
:10082000922F91708881882321F081E0232B09F099
:1008300080E09883DF91CF911F910F9108950097E9
:1008400069F0FC0101900020E9F73197AF01481BE6
:10085000590BBC0187E093E00C94640190E080E0C8
:1008600008950F931F93CF93DF930E949A03809173
:10087000EF029091F0028430910550F5855F9E4F14
:10088000FC0190818091F102C1E0C80FC91708F006
:10089000C0E00E94B7038C018C2F0E94B703EC01CB
:1008A00080E00E9469038DE591E00E941F04C80169
:1008B0000E941F0481E00E94690380E691E00E948B
:1008C0001F04CE01DF91CF911F910F910C941F0453
:1008D00090E0D8CF0E949A0380E00E94690383E6EB
:1008E00091E00E941F0481E00E94690383E791E088
:1008F0000E941F0468E873E180E090E00E943001EC
:100900000C9431040E949A0380E00E94690380E8FD
:1009100091E00E941F0481E00E9469038EE891E04B
:100920000E941F046CED75E080E090E00E943001B1
:100930000C9431040E949A0380E00E94690387E9C5
:1009400091E00E941F0481E00E94690385EA91E022
:100950000E941F046CED75E080E090E00E94300181
:100960000C9431040E949A0380E00E94690383E999
:1009700091E00E941F0481E00E9469038CEA91E0EB
:100980000E941F046CED75E080E090E00E94300151
:100990000C9431040C94B2040E949A0380E00E94EB
:1009A000690381EB91E00E941F046CED75E080E02B
:1009B00090E00E9430010C9431041092EE021092EB
:1009C000ED0283E090E09093F0028093EF021092AA
:1009D000F1020C9431041092EE021092ED0282E0CA
:1009E00090E09093F0028093EF021092F1020C9449
:1009F00031041092EE021092ED0281E090E09093AB
:100A0000F0028093EF021092F1020C94310485ED14
:100A10008093BC008091B6029091B702A091B80279
:100A2000B091B9020796A11DB11D23E0B695A79517
:100A3000979587952A95D1F72091BC0024FD03C096
:100A40001092B40208954091B6025091B70260919D
:100A5000B8027091B902452B462B472B69F30097DA
:100A6000A105B10541F02AE22A95F1F700C00197EE
:100A7000A109B109E1CF8091B5020C94D601CF92C2
:100A8000DF92EF92FF920F931F93CF93DF93CDB737
:100A9000DEB7A1970FB6F894DEBF0FBECDBF0E94A0
:100AA0009A0380E00E94690381EC91E00E941F0498
:100AB0008AE0C82ED12CE12CF12C62E071E085E0B7
:100AC0000E94E603811155C081E00E9469032091D4
:100AD000E90230E050E040E019A28E010F5D1F4FA7
:100AE000CA01B901A70196010E94BF08605DF80123
:100AF00062938F01211531054105510589F7309722
:100B000061F001900020E9F73197AF01401B510BD4
:100B1000B80187E093E00E94640161E071E084E045
:100B20000E94E603882371F08091E9028F5F809331
:100B3000E9020E949A0380E00E94690381EC91E03F
:100B40000E941F0460E071E082E00E94E6038823B7
:100B500009F4B3CF8091E90281508093E9020E94A9
:100B60009A0380E00E94690381EC91E00E941F04D7
:100B7000A4CF0E943104A1960FB6F894DEBF0FBE39
:100B8000CDBFDF91CF911F910F91FF90EF90DF903C
:100B9000CF9008951F920F920FB60F9211242F93AA
:100BA0003F938F939F93AF93BF938091F302909164
:100BB000F402A091F502B091F6023091F20223E026
:100BC000230F2D3758F50196A11DB11D2093F20278
:100BD0008093F3029093F402A093F502B093F6028F
:100BE0008091F7029091F802A091F902B091FA0277
:100BF0000196A11DB11D8093F7029093F802A09376
:100C0000F902B093FA02BF91AF919F918F913F91FA
:100C10002F910F900FBE0F901F90189526E8230F6D
:100C20000296A11DB11DD2CF1F920F920FB60F9247
:100C300011242F933F934F935F936F937F938F93E1
:100C40009F93AF93BF93EF93FF938091B900887FF9
:100C5000803609F44AC0F0F5883209F4A7C018F5C7
:100C6000803109F49BC0B8F4882309F4F9C08830B6
:100C700009F494C0FF91EF91BF91AF919F918F9133
:100C80007F916F915F914F913F912F910F900FBE88
:100C90000F901F901895883109F488C0803251F761
:100CA0008093B20214C0803409F49DC040F48033B4
:100CB000B9F38833F9F68093B20285ECB0C0803581
:100CC00009F485C0883509F496C0883499F60E94E5
:100CD0000705D0CF883909F48CC038F5883729F05A
:100CE00050F4883611F0803729F683E08093B402FF
:100CF00010928D0257C0883809F47BC0803919F0F2
:100D0000803809F0B7CF80918D02803208F071C031
:100D1000E0918D0281E08E0F80938D028091BB0067
:100D2000F0E0E359FD4F80833DC0803B39F0E0F4B3
:100D3000803A09F479C0883A09F09CCF84E0809326
:100D4000B40210926C0210926B02E091DE02F091FC
:100D5000DF02099580916B0281110FC081E08093C1
:100D60006B0210924B0209C0803C09F4A6CF883C6C
:100D700009F4A3CF883B09F07DCFE0916C0281E0BC
:100D80008E0F80936C02F0E0E55BFD4F80818093D5
:100D9000BB0090916C0280916B0229C080918F0200
:100DA0008093BB0085EC8093BC0064CF9091B1022E
:100DB0008091B002981758F5E091B10281E08E0F52
:100DC0008093B102F0E0E057FD4F8081E9CFE091E0
:100DD000B10281E08E0F8093B1028091BB00F0E000
:100DE000E057FD4F80839091B1028091B002981737
:100DF000C8F285E8D8CFE091B10281E08E0F8093F0
:100E0000B1028091BB00F0E0E057FD4F80838091FC
:100E1000B30281115CCF81E080938E0284EA8093DB
:100E2000BC001092B40226CF85EC8093BC001092D7
:100E3000B40280918D02803230F4E0918D02F0E0B6
:100E4000E359FD4F108260918D0270E0E091DC0269
:100E5000F091DD028DE692E0099510928D020ACFA5
:100E60001092B20234CFEBEFF2E01382128288EEDE
:100E700093E0A0E0B0E084839583A683B78383E406
:100E800091E091838083E7E0F3E01382128285E5AD
:100E900091E091838083118687E2848380E1828759
:100EA00082E083870895789484B5826084BD84B598
:100EB000816084BD85B5826085BD85B5816085BD55
:100EC00080916E00816080936E001092810080910D
:100ED0008100826080938100809181008160809395
:100EE0008100809180008160809380008091B100BA
:100EF00084608093B1008091B00081608093B000E5
:100F000080917A00846080937A0080917A00826078
:100F100080937A0080917A00816080937A0080913A
:100F20007A00806880937A001092C1001092E302E8
:100F30001092E2021092E1021092E0020E94B801C7
:100F400082E691E09093DF028093DE0283E691E0F7
:100F50009093DD028093DC0280E180930C0380910A
:100F60001203823018F098E190930C0380930F03E2
:100F70008BE39DE00197F1F760910C03606270E0F4
:100F800087E093E00E947D028BE496E40197F1F7FD
:100F900060910C03606270E087E093E00E947D0244
:100FA00083E592E00197F1F760910C03606270E0D5
:100FB00087E093E00E947D0260910C03606270E024
:100FC00087E093E00E947D0284E080930D036CE053
:100FD00070E087E093E00E947D020E949A0382E025
:100FE00080930E0366E070E087E093E00E947D024C
:100FF00062E070E087E093E00E947D028BE39FE176
:101000000197F1F784E00E948C0085E00E948C003B
:1010100082E00E948C0004EE12E0D0E0C0E0CE013D
:101020000E94B708F80181938F012196C930D1053C
:10103000B1F78091EB029091EC028A3F9A4FD9F080
:1010400080E197E29093E5028093E4028CE291E0E4
:101050009093E7028093E60282E38093E8028AE0BD
:101060008093E90281E08093EA028AEF9AEF9093FD
:10107000EC028093EB020E943104C0E0D0E062E019
:1010800071E085E00E94E6038823B1F08091F102CF
:101090008F5F8093F1022091EF023091F0022430B3
:1010A000310530F4255F3E4FF9019081891710F02A
:1010B0001092F1020E94310461E071E084E00E942C
:1010C000E603882369F08091EF029091F00281306D
:1010D000910591F120F182309105B9F10397F1F179
:1010E00060E071E082E00E94E603882391F0809145
:1010F000EF029091F002892B61F08091ED029091C6
:10110000EE029093F0028093EF021092F1020E949F
:101110003104209709F4B3CF0E940000B0CFE091D2
:10112000F10224E0E29FF0011124E15FFE4F028012
:10113000F381E02D0995D4CFE091F10284E0E89F9E
:10114000F0011124E95CFE4FF2CFE091F10224E0BE
:10115000E29FF0011124E55DFE4FE9CFE091F1023D
:1011600084E0E89FF0011124E55EFE4FE0CFF9999D
:10117000FECF92BD81BDF89A992780B50895A1E26E
:101180001A2EAA1BBB1BFD010DC0AA1FBB1FEE1F01
:10119000FF1FA217B307E407F50720F0A21BB30B4C
:1011A000E40BF50B661F771F881F991F1A9469F7C8
:1011B00060957095809590959B01AC01BD01CF0124
:1011C0000895EE0FFF1F0590F491E02D0994F89417
:1011D000FFCF01010100004000140054000302038E
:1011E00004EB01F904DA01EB04C801DD04D601CAFD
:1011F00004E701B204F2013F0506026A041202820A
:10120000049301CA04C1013F051A02CC04C1019A2A
:1012100004000000004E022102B403F7011A020785
:1012200002F80100000000AC036401B403B3033E04
:101230002000202000447265616E20477261636562
:10124000476F6C640047726163654F532076302EA0
:10125000310043656E747269667567616E646F0014
:10126000313230302052504D005469656D706F201E
:101270006C617661646F003330206D696E003132CD
:101280003030004C617661646F20696E696369611A
:10129000646F005469656D706F00436F6E666967B7
:1012A00075726163696F6E0052504D2043656E74B4
:1012B000726966756761646F0052504D204C6176AB
:1012C00061646F005469656D706F2043656E747260
:1012D0006966756761646F00496E666F726D616300
:1012E000696F6E00496E696369617200496E696376
:0C12F000696172206C617661646F00001F
:107E0000112484B714BE81FFF0D085E080938100F7
:107E100082E08093C00088E18093C10086E0809377
:107E2000C20080E18093C4008EE0C9D0259A86E02C
:107E300020E33CEF91E0309385002093840096BBD3
:107E4000B09BFECF1D9AA8958150A9F7CC24DD24C4
:107E500088248394B5E0AB2EA1E19A2EF3E0BF2EE7
:107E6000A2D0813461F49FD0082FAFD0023811F036
:107E7000013811F484E001C083E08DD089C08234E0
:107E800011F484E103C0853419F485E0A6D080C0E4
:107E9000853579F488D0E82EFF2485D0082F10E0AE
:107EA000102F00270E291F29000F111F8ED06801E7
:107EB0006FC0863521F484E090D080E0DECF843638
:107EC00009F040C070D06FD0082F6DD080E0C81688
:107ED00080E7D80618F4F601B7BEE895C0E0D1E017
:107EE00062D089930C17E1F7F0E0CF16F0E7DF06D8
:107EF00018F0F601B7BEE89568D007B600FCFDCFD4
:107F0000A601A0E0B1E02C9130E011968C91119780
:107F100090E0982F8827822B932B1296FA010C0160
:107F200087BEE89511244E5F5F4FF1E0A038BF0790
:107F300051F7F601A7BEE89507B600FCFDCF97BE46
:107F4000E89526C08437B1F42ED02DD0F82E2BD052
:107F50003CD0F601EF2C8F010F5F1F4F84911BD097
:107F6000EA94F801C1F70894C11CD11CFA94CF0C13
:107F7000D11C0EC0853739F428D08EE10CD085E9AC
:107F80000AD08FE07ACF813511F488E018D01DD067
:107F900080E101D065CF982F8091C00085FFFCCF94
:107FA0009093C60008958091C00087FFFCCF809118
:107FB000C00084FD01C0A8958091C6000895E0E648
:107FC000F0E098E1908380830895EDDF803219F02E
:107FD00088E0F5DFFFCF84E1DECF1F93182FE3DFCA
:107FE0001150E9F7F2DF1F91089580E0E8DFEE27F6
:047FF000FF270994CA
:027FFE00040479
:00000001FF
