:100000000C9462000C948A000C948A000C948A0070
:100010000C948A000C948A000C948A000C948A0038
:100020000C948A000C948A000C948A000C948A0028
:100030000C948A000C948A000C948A000C948A0018
:100040000C9474050C948A000C948A000C948A0019
:100050000C948A000C948A000C948A000C948A00F8
:100060000C94BE050C948A000000000023002600BA
:10007000290000000008000201000003040700003E
:1000800000000000000000000000250028002B00F8
:1000900000000000240027002A00040404040404D3
:1000A0000404020202020202030303030303010227
:1000B00004081020408001020408102001020408F6
:1000C0001020DD0611241FBECFEFD8E0DEBFCDBF6C
:1000D00012E0A0E0B1E0E6E2F1E102C005900D928D
:1000E000AC32B107D9F723E0ACE2B2E001C01D9217
:1000F000AA31B207E1F710E0C2E6D0E004C02197D0
:10010000FE010E948B08C136D107C9F70E940B0778
:100110000C9491080C940000CF93DF9390E0FC01C5
:10012000E255FF4F249186569F4FFC01849188230E
:10013000C1F090E0880F991FFC01E057FF4FC59177
:10014000D491FC01EA57FF4FA591B4919FB7F89461
:100150003881822F809583238883EC91E22BEC9366
:100160009FBFDF91CF910895833081F028F48130D3
:1001700099F08230A9F008958730A9F08830C9F04D
:100180008430B1F4809180008F7D03C08091800025
:100190008F7780938000089584B58F7784BD08950C
:1001A00084B58F7DFBCF8091B0008F778093B000B6
:1001B00008958091B0008F7DF9CF1F93CF93DF9387
:1001C000282F30E0F901EE58FF4F8491F901E255F4
:1001D000FF4FD491F901E656FF4FC491CC23A9F00B
:1001E000162F81110E94B400EC2FF0E0EE0FFF1FDC
:1001F000EA57FF4FA591B4918FB7F894EC91111184
:1002000008C0D095DE23DC938FBFDF91CF911F9183
:100210000895DE2BF8CF3FB7F8948091F9029091C2
:10022000FA02A091FB02B091FC0226B5A89B05C082
:100230002F3F19F00196A11DB11D3FBFBA2FA92F65
:10024000982F8827BC01CD01620F711D811D911D62
:1002500042E0660F771F881F991F4A95D1F70895CE
:100260008F929F92AF92BF92CF92DF92EF92FF92C6
:100270004B015C010E940B016B017C010E940B0190
:100280006C197D098E099F09683E734081059105AF
:10029000A8F321E0821A9108A108B10888EEC80EDF
:1002A00083E0D81EE11CF11C81149104A104B10467
:1002B00029F7FF90EF90DF90CF90BF90AF909F9085
:1002C0008F90089508950895AF92BF92CF92DF92D4
:1002D000EF92FF920F931F93CF93DF936C017B01FB
:1002E0008B01040F151FEB015E01AE18BF08C0178C
:1002F000D10759F06991D601ED91FC910190F081FF
:10030000E02DC6010995892B79F7C501DF91CF91C1
:100310001F910F91FF90EF90DF90CF90BF90AF9023
:10032000089520919402260F3327331F213231057F
:10033000ECF42091B802FC0190E080E0243069F0F8
:1003400082E00895A09194022191AC014C585D4F38
:10035000A40FB52FB11D2C930196861798F38091A9
:100360009402680F6093940280E0089581E00895FC
:100370001092B80281E08093BA021092B90261E053
:1003800082E10E94DD0061E083E10E94DD00E9EB93
:10039000F0E080818E7F808380818D7F808388E400
:1003A0008093B80085E48093BC000895CF93DF93D9
:1003B00091E0909373028823B9F0C091B800D09176
:1003C000BA008091BC008A7B8093BC0060E082E12F
:1003D0000E94DD0060E083E10E94DD000E94B80120
:1003E000D093BA00C093B800DF91CF9108950895DB
:1003F000E091E5028091E402E81730F4F0E0E25B7E
:10040000FD4F808190E008958FEF9FEF08959091C8
:10041000E5028091E4022FEF3FEF981748F4E92FAF
:10042000F0E0E25BFD4F208130E09F5F9093E502BA
:10043000C90108958091E4029091E502891B990B0E
:100440000895CF92DF92EF92FF920F931F93CF9375
:10045000DF937C01CB018A0120914D02222389F098
:10046000EB016B01C40ED51ECC15DD0569F0699159
:10047000D701ED91FC910190F081E02DC701099524
:10048000F3CF642F0E949101C801DF91CF911F919A
:100490000F91FF90EF90DF90CF900895CF93DF936F
:1004A0001F92CDB7DEB7698320914D022223F9F068
:1004B0002091E202203258F021E030E0FC01338349
:1004C000228390E080E00F90DF91CF91089580919A
:1004D000E302E82FF0E0E35DFD4F998190838F5FA9
:1004E0008093E3028093E20281E090E0ECCF61E050
:1004F000CE0101960E949101F7CFCF92DF92EF9249
:10050000FF920F931F93CF93DF93FC018585968510
:10051000248131E030934D0220932C021092E302AB
:100520001092E2022385622BDC01ED91FC91019097
:10053000F081E02D0995D091E202D13208F094C00B
:10054000C0912C020E940B016B017C018091B802CA
:10055000811165C082E08093B80281E08093BA0285
:100560008FEF8093B7021092DC02D093DB02ADE2F2
:10057000B2E0EBEBF2E080E0D81385C01092DD0230
:100580008091DD02CC0FC82BC093DD028091B902AF
:10059000813009F07CC01092B9020E940B016B01FE
:1005A0007C018091DD028093BB0080916F0290916D
:1005B0007002A0917102B0917202892B8A2B8B2B51
:1005C00099F00E940B0100916F021091700220912E
:1005D0007102309172026C197D098E099F0906170C
:1005E000170728073907E0F18091BC0083FDD9CFB8
:1005F00085EC8093BC000E940B016B017C01809113
:10060000B802823009F445C08091B7028F3F61F192
:100610008091B702803241F18091B70225C080916C
:100620006F0290917002A0917102B0917202892BB9
:100630008A2B8B2B09F48ACF0E940B0100916F0249
:100640001091700220917102309172026C197D0933
:100650008E099F09061717072807390708F076CF74
:1006600080916E020E94D6011092E3021092E20283
:1006700010924D02DF91CF911F910F91FF90EF905B
:10068000DF90CF9008959D9191938F5F75CF85EE08
:10069000B0CF80916F0290917002A0917102B091E1
:1006A0007202892B8A2B8B2B09F4A9CF0E940B0194
:1006B00000916F02109170022091710230917202CC
:1006C0006C197D098E099F09061717072807390736
:1006D00008F095CFC5CF089590E080E0089520916F
:1006E000F1023091F2022130310599F048F02230C8
:1006F0003105B1F023303105D1F08EE591E0089558
:1007000094E0899FF0011124E95FFE4F808191817F
:10071000089594E0899FF0011124E15DFE4FF6CF2A
:1007200094E0899FF0011124ED5DFE4FEFCF94E03E
:10073000899FF0011124ED5EFE4FE8CF0F931F93C8
:10074000CF93DF93EB01282F30E0F901EE58FF4FF4
:100750008491F901E255FF4F0491F901E656FF4FEC
:10076000149130E020E0112399F081110E94B4002F
:10077000E12FF0E0EE0FFF1FE859FF4FA591B49174
:10078000EC910E2391E080E009F490E0292F382FBE
:10079000922F91708881882321F081E0232B09F02A
:1007A00080E09883DF91CF911F910F91089500977A
:1007B00069F0FC0101900020E9F73197AF01481B77
:1007C000590BBC0189E093E00C94640190E080E057
:1007D000089585ED8093BC0080916F029091700226
:1007E000A0917102B09172020796A11DB11D23E084
:1007F000B695A795979587952A95D1F72091BC0036
:1008000024FD03C01092B802089540916F025091E8
:1008100070026091710270917202452B462B472B3A
:1008200069F30097A105B10541F02AE22A95F1F795
:1008300000C00197A109B109E1CF80916E020C942B
:10084000D6010F931F93CF938C01C62F0E947D0278
:100850006C2F6460C8010E947D026C2F6B7FC80101
:100860000E947D0283EC90E00197F1F7CF911F91F8
:100870000F9108950F931F93CF93DF938C01D62F81
:10088000C42F607F642B0E94210480E1D89FB001B7
:1008900011246C2BC801DF91CF911F910F910C9403
:1008A000210490911103891710F08FEF890F91E0C7
:1008B00020911203211190E0292F219520931803F4
:1008C00080931903E82FF0E0E95CFE4F6081691B1B
:1008D000606840E089E093E00C943A0440E061E015
:1008E00089E093E00E943A048BE39FE10197F1F7DE
:1008F00080911503882319F080E00C945104089529
:100900000F931F93CF93DF930E946E048091F102A7
:100910009091F2028430910550F58D5F9E4FFC015D
:1009200090818091F302C1E0C80FC91708F0C0E0C0
:100930000E946F038C018C2F0E946F03EC0180E0FA
:100940000E94510489E591E00E94D703C8010E94EA
:10095000D70381E00E9451048CE591E00E94D70307
:10096000CE01DF91CF911F910F910C94D70390E0AE
:10097000D8CF0E946E0480E00E9451048FE591E080
:100980000E94D70381E00E9451048FE691E00E940B
:10099000D70360ED77E080E090E00E9430010C9496
:1009A00080040E946E0480E00E9451048CE791E074
:1009B0000E94D70381E00E94510483E891E00E94E5
:1009C000D7036CED75E080E090E00E9430010C945C
:1009D00080040E946E0480E00E9451048AE891E045
:1009E0000E94D70381E00E94510488E991E00E94AF
:1009F000D7036CED75E080E090E00E9430010C942C
:100A000080040E946E0480E00E94510481EA91E01B
:100A10000E94D70381E00E9451048FEA91E00E9476
:100A2000D7036CED75E080E090E00E9430010C94FB
:100A300080040E946E0480E00E9451048DE991E0E0
:100A40000E94D70381E00E94510486EB91E00E944E
:100A5000D7036CED75E080E090E00E9430010C94CB
:100A600080040C9419050E946E0480E00E945104D9
:100A70008BEB91E00E94D7036CED75E080E090E095
:100A80000E9430010C9480041092F0021092EF0248
:100A900083E090E09093F2028093F1021092F302CF
:100AA0000C9480041092F0021092EF0282E090E029
:100AB0009093F2028093F1021092F3020C9480045E
:100AC0001092F0021092EF0281E090E09093F20217
:100AD0008093F1021092F3020C94800441E00E9492
:100AE0003A0481E090E008951F920F920FB60F92A2
:100AF00011242F933F938F939F93AF93BF93809134
:100B0000F5029091F602A091F702B091F8023091AF
:100B1000F40223E0230F2D3758F50196A11DB11DD6
:100B20002093F4028093F5029093F602A093F702CB
:100B3000B093F8028091F9029091FA02A091FB0221
:100B4000B091FC020196A11DB11D8093F902909312
:100B5000FA02A093FB02B093FC02BF91AF919F9168
:100B60008F913F912F910F900FBE0F901F9018956E
:100B700026E8230F0296A11DB11DD2CF1F920F921E
:100B80000FB60F9211242F933F934F935F936F9360
:100B90007F938F939F93AF93BF93EF93FF93809136
:100BA000B900887F803609F44AC0F0F5883209F42C
:100BB000A7C018F5803109F49BC0B8F4882309F464
:100BC000F9C0883009F494C0FF91EF91BF91AF91C3
:100BD0009F918F917F916F915F914F913F912F9155
:100BE0000F900FBE0F901F901895883109F488C0A0
:100BF000803251F78093B70214C0803409F49DC04D
:100C000040F48033B9F38833F9F68093B70285EC6A
:100C1000B0C0803509F485C0883509F496C08834A1
:100C200099F60E94E903D0CF883909F48CC038F5D1
:100C3000883729F050F4883611F0803729F683E0A0
:100C40008093B8021092B60257C0883809F47BC06E
:100C5000803919F0803809F0B7CF8091B602803220
:100C600008F071C0E091B60281E08E0F8093B60269
:100C70008091BB00F0E0EA56FD4F80833DC0803B91
:100C800039F0E0F4803A09F479C0883A09F09CCF51
:100C900084E08093B8021092950210929402E09141
:100CA000E002F091E10209958091940281110FC058
:100CB00081E0809394021092740209C0803C09F490
:100CC000A6CF883C09F4A3CF883B09F07DCFE09103
:100CD000950281E08E0F80939502F0E0EC58FD4F75
:100CE00080818093BB00909195028091940229C0ED
:100CF0008091DD028093BB0085EC8093BC0064CFC3
:100D00009091DC028091DB02981758F5E091DC02AB
:100D100081E08E0F8093DC02F0E0E554FD4F80818E
:100D2000E9CFE091DC0281E08E0F8093DC028091BC
:100D3000BB00F0E0E554FD4F80839091DC02809190
:100D4000DB029817C8F285E8D8CFE091DC0281E099
:100D50008E0F8093DC028091BB00F0E0E554FD4FE4
:100D600080838091BA0281115CCF81E08093B902C7
:100D700084EA8093BC001092B80226CF85EC809361
:100D8000BC001092B8028091B602803230F4E0913B
:100D9000B602F0E0EA56FD4F10826091B60270E0B4
:100DA000E091DE02F091DF0286E992E0099510926F
:100DB000B6020ACF1092B70234CFADEFB2E013966D
:100DC0001C921E92129748EE53E060E070E0149679
:100DD0004D935D936D937C9317978FE391E01196FC
:100DE0009C938E93E9E0F3E01382128281E591E017
:100DF0009183808387E2848315821682178210860E
:100E000080E1818782E0828713861486B687A58772
:100E10001786108A0895789484B5826084BD84B55D
:100E2000816084BD85B5826085BD85B5816085BDE5
:100E300080916E00816080936E001092810080919D
:100E40008100826080938100809181008160809325
:100E50008100809180008160809380008091B1004A
:100E600084608093B1008091B00081608093B00075
:100E700080917A00846080937A0080917A00826009
:100E800080937A0080917A00816080937A008091CB
:100E90007A00806880937A001092C1001092E50277
:100EA0001092E4021092E3021092E2020E94B80152
:100EB00082E691E09093E1028093E00283E691E084
:100EC0009093DF028093DE0210920E038091130351
:100ED000823018F098E090930E038093110362E340
:100EE00070E080E090E00E9430016091140389E09E
:100EF00093E00E947D0268EE73E080E090E00E9443
:100F0000300160E389E093E00E942104CBE4D6E461
:100F1000CE010197F1F760E389E093E00E9421049C
:100F20002197F1F760E389E093E00E94210483E5D3
:100F300092E00197F1F760E289E093E00E942104DA
:100F400060910E03606240E089E093E00E943A0401
:100F500084E080930F0340E06CE089E093E00E941E
:100F60003A040E946E0482E08093100340E066E041
:100F700089E093E00E943A0440E062E089E093E077
:100F80000E943A048BE39FE10197F1F788E0809398
:100F9000140360E089E093E00E947D0284E00E94F7
:100FA0008C0085E00E948C0082E00E948C0006EE9E
:100FB00012E0D0E0C0E0CE010E948308F8018193E6
:100FC0008F012196C930D105B1F78091ED02909142
:100FD000EE028A3F9A4FD9F080E197E29093E702C0
:100FE0008093E6028CE291E09093E9028093E8021C
:100FF00082E38093EA028AE08093EB0281E08093AF
:10100000EC028AEF9AEF9093EE028093ED020E9439
:101010008004C0E0D0E062E071E085E00E949E03C1
:101020008823B1F08091F3028F5F8093F3022091C7
:10103000F1023091F2022430310530F42D5F3E4F41
:10104000F9019081891710F01092F3020E94800438
:1010500061E071E084E00E949E03882369F0809142
:10106000F1029091F2028130910591F120F18230EC
:101070009105B9F10397F1F160E071E082E00E941F
:101080009E03882391F08091F1029091F202892BC6
:1010900061F08091EF029091F0029093F2028093C0
:1010A000F1021092F3020E948004209709F4B3CF5A
:1010B0000E940000B0CFE091F30224E0E29FF00133
:1010C0001124E95FFE4F0280F381E02D0995D4CF12
:1010D000E091F30284E0E89FF0011124E15DFE4F0E
:1010E000F2CFE091F30224E0E29FF0011124ED5DE4
:1010F000FE4FE9CFE091F30284E0E89FF001112474
:10110000ED5EFE4FE0CFF999FECF92BD81BDF89A1A
:10111000992780B50895EE0FFF1F0590F491E02DFB
:061120000994F894FFCFD2
:1011260001010103020304EE016005DD015205CB56
:10113600014405D9013105EA011905F501D1040972
:1011460002B9041502E9049D0131057C01D1041D93
:101156000233057C01010500401454000000004ED6
:101166000221026C03F7011A020702F801000000CF
:10117600006E0564016C036B033E200020200044D2
:101186007265616E204772616365476F6C640047E4
:10119600726163654F532076302E31005469656D58
:1011A600706F003130206D696E0043656E74726930
:1011B600667567616E646F00313230302052504D73
:1011C600005469656D706F206C617661646F0033E1
:1011D60030206D696E0031323030004C61766164CA
:1011E6006F20696E69636961646F00436F6E66693B
:1011F6006775726163696F6E0052504D2043656E6C
:1012060074726966756761646F0052504D204C6157
:101216007661646F005469656D706F2043656E7406
:10122600726966756761646F00496E666F726D619B
:1012360063696F6E00496E696369617200496E6920
:0C12460063696172206C617661646F0066
:00000001FF
